{
  "contractName": "Rent_payment",
  "abi": [
    {
      "inputs": [
        {
          "internalType": "address payable",
          "name": "landlordAddress",
          "type": "address"
        },
        {
          "internalType": "uint256",
          "name": "duration",
          "type": "uint256"
        }
      ],
      "stateMutability": "payable",
      "type": "constructor"
    },
    {
      "inputs": [],
      "name": "expiration",
      "outputs": [
        {
          "internalType": "uint256",
          "name": "",
          "type": "uint256"
        }
      ],
      "stateMutability": "view",
      "type": "function"
    },
    {
      "inputs": [],
      "name": "landlord",
      "outputs": [
        {
          "internalType": "address payable",
          "name": "",
          "type": "address"
        }
      ],
      "stateMutability": "view",
      "type": "function"
    },
    {
      "inputs": [],
      "name": "tenant",
      "outputs": [
        {
          "internalType": "address payable",
          "name": "",
          "type": "address"
        }
      ],
      "stateMutability": "view",
      "type": "function"
    },
    {
      "inputs": [
        {
          "internalType": "address",
          "name": "account",
          "type": "address"
        }
      ],
      "name": "balanceOf",
      "outputs": [
        {
          "internalType": "uint256",
          "name": "",
          "type": "uint256"
        }
      ],
      "stateMutability": "view",
      "type": "function"
    },
    {
      "inputs": [
        {
          "internalType": "uint256",
          "name": "amount",
          "type": "uint256"
        }
      ],
      "name": "payRent",
      "outputs": [],
      "stateMutability": "nonpayable",
      "type": "function"
    },
    {
      "inputs": [
        {
          "internalType": "uint256",
          "name": "newExpiration",
          "type": "uint256"
        }
      ],
      "name": "extend",
      "outputs": [],
      "stateMutability": "nonpayable",
      "type": "function"
    },
    {
      "inputs": [],
      "name": "claimTimeout",
      "outputs": [],
      "stateMutability": "nonpayable",
      "type": "function"
    }
  ],
  "bytecode": "0x60806040526040516105273803806105278339818101604052604081101561002657600080fd5b810190808051906020019092919080519060200190929190505050336000806101000a81548173ffffffffffffffffffffffffffffffffffffffff021916908373ffffffffffffffffffffffffffffffffffffffff16021790555081600160006101000a81548173ffffffffffffffffffffffffffffffffffffffff021916908373ffffffffffffffffffffffffffffffffffffffff160217905550804201600281905550505061044b806100dc6000396000f3fe608060405234801561001057600080fd5b506004361061007d5760003560e01c80639714378c1161005b5780639714378c14610102578063adf0779114610130578063d9e8843f14610164578063dc1997ea146101925761007d565b80630e1da6c3146100825780634665096d1461008c57806370a08231146100aa575b600080fd5b61008a6101c6565b005b61009461020e565b6040518082815260200191505060405180910390f35b6100ec600480360360208110156100c057600080fd5b81019080803573ffffffffffffffffffffffffffffffffffffffff169060200190929190505050610214565b6040518082815260200191505060405180910390f35b61012e6004803603602081101561011857600080fd5b810190808035906020019092919050505061025d565b005b6101386102cf565b604051808273ffffffffffffffffffffffffffffffffffffffff16815260200191505060405180910390f35b6101906004803603602081101561017a57600080fd5b81019080803590602001909291905050506102f3565b005b61019a6103ef565b604051808273ffffffffffffffffffffffffffffffffffffffff16815260200191505060405180910390f35b6002544210156101d557600080fd5b60008054906101000a900473ffffffffffffffffffffffffffffffffffffffff1673ffffffffffffffffffffffffffffffffffffffff16ff5b60025481565b6000600360008373ffffffffffffffffffffffffffffffffffffffff1673ffffffffffffffffffffffffffffffffffffffff168152602001908152602001600020549050919050565b600160009054906101000a900473ffffffffffffffffffffffffffffffffffffffff1673ffffffffffffffffffffffffffffffffffffffff163373ffffffffffffffffffffffffffffffffffffffff16146102b757600080fd5b60025481116102c557600080fd5b8060028190555050565b60008054906101000a900473ffffffffffffffffffffffffffffffffffffffff1681565b600160009054906101000a900473ffffffffffffffffffffffffffffffffffffffff1673ffffffffffffffffffffffffffffffffffffffff163373ffffffffffffffffffffffffffffffffffffffff161461034d57600080fd5b600160009054906101000a900473ffffffffffffffffffffffffffffffffffffffff1673ffffffffffffffffffffffffffffffffffffffff166108fc829081150290604051600060405180830381858888f193505050501580156103b5573d6000803e3d6000fd5b5060008054906101000a900473ffffffffffffffffffffffffffffffffffffffff1673ffffffffffffffffffffffffffffffffffffffff16ff5b600160009054906101000a900473ffffffffffffffffffffffffffffffffffffffff168156fea264697066735822122060c9a11e22a4c0ff5f980b6abb7096503f2d3017cdb823d2440271fdfbe7c84e64736f6c63430007060033",
  "immutableReferences": {},
  "source": "pragma solidity >=0.7.0 <0.9.0;\r\n\r\ncontract Rent_payment {\r\n    address payable public tenant;      // The account sending payments.\r\n    address payable public landlord;   // The account receiving the payments.\r\n    uint256 public expiration;  // Timeout in case the landlord never closes.\r\n    mapping(address => uint256) balances;\r\n    \r\n    function balanceOf(address account) external view returns (uint256) {\r\n        return balances[account];\r\n    }\r\n    \r\n    // uint256 landlordBalance = balanceOf(landlord);\r\n\r\n    constructor (address payable landlordAddress, uint256 duration) public payable {\r\n        tenant = payable(msg.sender);\r\n        landlord = landlordAddress;\r\n        expiration = block.timestamp + duration;\r\n        \r\n    }\r\n\r\n    /// the landlord can close the channel at any time by presenting a\r\n    /// agreed upon amount from the tenant. the landlord will be sent that amount,\r\n    /// and the remainder will go back to the tenant.\r\n    /// This is helpful if the tenant leaves in the middle of a month and the landlord \r\n    /// agrees to prorate the rent for the month.\r\n    function payRent(uint256 amount) external {\r\n        require(msg.sender == landlord);\r\n        // require(isValidSignature(amount, signature));\r\n\r\n        landlord.transfer(amount);\r\n        selfdestruct(tenant);\r\n    }\r\n\r\n    /// the tenant can extend the expiration at any time\r\n    /// the landlord can offer the tenant an extension on rent if the tenant cannot pay on time\r\n    /// and provides the landlord with a understandable explanation such as loss of job due to pandemic\r\n    /// for instance NY State allowed tenants to pay their rent many months behind schedule \r\n    /// without the threat of eviction as a result of the COVID-19 Pandemic.\r\n    function extend(uint256 newExpiration) external {\r\n        require(msg.sender == landlord);\r\n        require(newExpiration > expiration);\r\n\r\n        expiration = newExpiration;\r\n    }\r\n\r\n    /// if the timeout is reached without the landlord closing the channel,\r\n    /// then the ComputeCoin is released back to the tenant.\r\n    function claimTimeout() external {\r\n        require(block.timestamp >= expiration);\r\n        selfdestruct(tenant);\r\n    }\r\n// landlord doesn't care who pays the rent on behalf of the tenant\r\n    // function isValidSignature(uint256 amount, bytes memory signature)\r\n    //     internal\r\n    //     view\r\n    //     returns (bool)\r\n    // {\r\n    //     bytes32 message = prefixed(keccak256(abi.encodePacked(this, amount)));\r\n\r\n    //     // check that the signature is from the tenant\r\n    //     return recoverSigner(message, signature) == tenant;\r\n    // }\r\n\r\n    /// All functions below this are just taken from the chapter\r\n    /// 'creating and verifying signatures' chapter.\r\n\r\n    // function splitSignature(bytes memory sig)\r\n    //     internal\r\n    //     pure\r\n    //     returns (uint8 v, bytes32 r, bytes32 s)\r\n    // {\r\n    //     require(sig.length == 65);\r\n\r\n    //     assembly {\r\n    //         // first 32 bytes, after the length prefix\r\n    //         r := mload(add(sig, 32))\r\n    //         // second 32 bytes\r\n    //         s := mload(add(sig, 64))\r\n    //         // final byte (first byte of the next 32 bytes)\r\n    //         v := byte(0, mload(add(sig, 96)))\r\n    //     }\r\n\r\n    //     return (v, r, s);\r\n    // }\r\n\r\n    // function recoverSigner(bytes32 message, bytes memory sig)\r\n    //     internal\r\n    //     pure\r\n    //     returns (address)\r\n    // {\r\n    //     (uint8 v, bytes32 r, bytes32 s) = splitSignature(sig);\r\n\r\n    //     return ecrecover(message, v, r, s);\r\n    // }\r\n\r\n    // /// builds a prefixed hash to mimic the behavior of eth_sign.\r\n    // function prefixed(bytes32 hash) internal pure returns (bytes32) {\r\n    //     return keccak256(abi.encodePacked(\"\\x19Ethereum Signed Message:\\n32\", hash));\r\n    // }\r\n}",
  "sourcePath": "C:\\Users\\Pinchas\\OneDrive\\Columbia Engineering\\ELEN E6883 Intro to Blockchain\\Project\\truffle_2\\contracts\\Rent_payment.sol",
  "compiler": {
    "name": "solc",
    "version": "0.7.6+commit.7338295f.Emscripten.clang"
  },
  "schemaVersion": "3.4.7",
  "updatedAt": "2022-05-09T17:16:28.219Z",
  "devdoc": {
    "kind": "dev",
    "methods": {},
    "version": 1
  },
  "userdoc": {
    "kind": "user",
    "methods": {
      "claimTimeout()": {
        "notice": "if the timeout is reached without the landlord closing the channel, then the ComputeCoin is released back to the tenant."
      },
      "extend(uint256)": {
        "notice": "the tenant can extend the expiration at any time the landlord can offer the tenant an extension on rent if the tenant cannot pay on time and provides the landlord with a understandable explanation such as loss of job due to pandemic for instance NY State allowed tenants to pay their rent many months behind schedule  without the threat of eviction as a result of the COVID-19 Pandemic."
      },
      "payRent(uint256)": {
        "notice": "the landlord can close the channel at any time by presenting a agreed upon amount from the tenant. the landlord will be sent that amount, and the remainder will go back to the tenant. This is helpful if the tenant leaves in the middle of a month and the landlord  agrees to prorate the rent for the month."
      }
    },
    "version": 1
  }
}